{
  "contractName": "ProductsContract",
  "abi": [
    {
      "inputs": [],
      "payable": false,
      "stateMutability": "nonpayable",
      "type": "constructor"
    },
    {
      "anonymous": false,
      "inputs": [
        {
          "indexed": false,
          "internalType": "address",
          "name": "_from",
          "type": "address"
        }
      ],
      "name": "ClientLog",
      "type": "event"
    },
    {
      "anonymous": false,
      "inputs": [
        {
          "indexed": false,
          "internalType": "address",
          "name": "_from",
          "type": "address"
        }
      ],
      "name": "DeliverLog",
      "type": "event"
    },
    {
      "anonymous": false,
      "inputs": [
        {
          "indexed": false,
          "internalType": "address",
          "name": "_from",
          "type": "address"
        }
      ],
      "name": "FactoryLog",
      "type": "event"
    },
    {
      "anonymous": false,
      "inputs": [
        {
          "indexed": false,
          "internalType": "uint256",
          "name": "_balance",
          "type": "uint256"
        }
      ],
      "name": "WithdrawLog",
      "type": "event"
    },
    {
      "constant": true,
      "inputs": [
        {
          "internalType": "uint256",
          "name": "",
          "type": "uint256"
        }
      ],
      "name": "ProductsList",
      "outputs": [
        {
          "internalType": "uint256",
          "name": "",
          "type": "uint256"
        }
      ],
      "payable": false,
      "stateMutability": "view",
      "type": "function"
    },
    {
      "constant": false,
      "inputs": [
        {
          "internalType": "uint256",
          "name": "_id",
          "type": "uint256"
        },
        {
          "internalType": "uint256",
          "name": "_price",
          "type": "uint256"
        }
      ],
      "name": "setFactory",
      "outputs": [],
      "payable": false,
      "stateMutability": "nonpayable",
      "type": "function"
    },
    {
      "constant": false,
      "inputs": [
        {
          "internalType": "uint256",
          "name": "_id",
          "type": "uint256"
        }
      ],
      "name": "setDeliver",
      "outputs": [],
      "payable": false,
      "stateMutability": "nonpayable",
      "type": "function"
    },
    {
      "constant": false,
      "inputs": [
        {
          "internalType": "uint256",
          "name": "_id",
          "type": "uint256"
        }
      ],
      "name": "setClient",
      "outputs": [],
      "payable": true,
      "stateMutability": "payable",
      "type": "function"
    },
    {
      "constant": true,
      "inputs": [],
      "name": "getProducts",
      "outputs": [
        {
          "internalType": "uint256[]",
          "name": "",
          "type": "uint256[]"
        }
      ],
      "payable": false,
      "stateMutability": "view",
      "type": "function"
    },
    {
      "constant": true,
      "inputs": [
        {
          "internalType": "uint256",
          "name": "_id",
          "type": "uint256"
        }
      ],
      "name": "getProduct",
      "outputs": [
        {
          "internalType": "address",
          "name": "",
          "type": "address"
        },
        {
          "internalType": "address",
          "name": "",
          "type": "address"
        },
        {
          "internalType": "address",
          "name": "",
          "type": "address"
        },
        {
          "internalType": "uint256",
          "name": "",
          "type": "uint256"
        }
      ],
      "payable": false,
      "stateMutability": "view",
      "type": "function"
    },
    {
      "constant": true,
      "inputs": [],
      "name": "countProducts",
      "outputs": [
        {
          "internalType": "uint256",
          "name": "",
          "type": "uint256"
        }
      ],
      "payable": false,
      "stateMutability": "view",
      "type": "function"
    },
    {
      "constant": false,
      "inputs": [],
      "name": "withdraw",
      "outputs": [],
      "payable": false,
      "stateMutability": "nonpayable",
      "type": "function"
    },
    {
      "constant": true,
      "inputs": [],
      "name": "getBalance",
      "outputs": [
        {
          "internalType": "uint256",
          "name": "",
          "type": "uint256"
        }
      ],
      "payable": false,
      "stateMutability": "view",
      "type": "function"
    }
  ],
  "bytecode": "0x608060405234801561001057600080fd5b50336000806101000a81548173ffffffffffffffffffffffffffffffffffffffff021916908373ffffffffffffffffffffffffffffffffffffffff160217905550610a80806100606000396000f3fe6080604052600436106100865760003560e01c8063b9db15b411610059578063b9db15b41461014a578063c29b2f2014610232578063c30142d71461029e578063c35c6059146102e3578063f59f26361461030e57610086565b806312065fe01461008b5780633ccfd60b146100b657806369fa668f146100cd578063962ffdf1146100fb575b600080fd5b34801561009757600080fd5b506100a0610349565b6040518082815260200191505060405180910390f35b3480156100c257600080fd5b506100cb6103aa565b005b6100f9600480360360208110156100e357600080fd5b8101908080359060200190929190505050610483565b005b34801561010757600080fd5b506101346004803603602081101561011e57600080fd5b8101908080359060200190929190505050610666565b6040518082815260200191505060405180910390f35b34801561015657600080fd5b506101836004803603602081101561016d57600080fd5b8101908080359060200190929190505050610687565b604051808573ffffffffffffffffffffffffffffffffffffffff1673ffffffffffffffffffffffffffffffffffffffff1681526020018473ffffffffffffffffffffffffffffffffffffffff1673ffffffffffffffffffffffffffffffffffffffff1681526020018373ffffffffffffffffffffffffffffffffffffffff1673ffffffffffffffffffffffffffffffffffffffff16815260200182815260200194505050505060405180910390f35b34801561023e57600080fd5b5061024761075b565b6040518080602001828103825283818151815260200191508051906020019060200280838360005b8381101561028a57808201518184015260208101905061026f565b505050509050019250505060405180910390f35b3480156102aa57600080fd5b506102e1600480360360408110156102c157600080fd5b8101908080359060200190929190803590602001909291905050506107b3565b005b3480156102ef57600080fd5b506102f8610950565b6040518082815260200191505060405180910390f35b34801561031a57600080fd5b506103476004803603602081101561033157600080fd5b810190808035906020019092919050505061095d565b005b60008060009054906101000a900473ffffffffffffffffffffffffffffffffffffffff1673ffffffffffffffffffffffffffffffffffffffff163373ffffffffffffffffffffffffffffffffffffffff16146103a457600080fd5b47905090565b6000809054906101000a900473ffffffffffffffffffffffffffffffffffffffff1673ffffffffffffffffffffffffffffffffffffffff163373ffffffffffffffffffffffffffffffffffffffff161461040357600080fd5b3373ffffffffffffffffffffffffffffffffffffffff166108fc479081150290604051600060405180830381858888f19350505050158015610449573d6000803e3d6000fd5b507fb6eaadeb5933b8ae4b45ddac7500784fcbf03bc0e945d593d96ab64e409fe59c476040518082815260200191505060405180910390a1565b6001600082815260200190815260200160002060040154341461050e576040517f08c379a000000000000000000000000000000000000000000000000000000000815260040180806020018281038252601d8152602001807f416c676f205061736f20656e20656c20726571756572696d69656e746f00000081525060200191505060405180910390fd5b336001600083815260200190815260200160002060030160006101000a81548173ffffffffffffffffffffffffffffffffffffffff021916908373ffffffffffffffffffffffffffffffffffffffff1602179055506001600082815260200190815260200160002060020160009054906101000a900473ffffffffffffffffffffffffffffffffffffffff1673ffffffffffffffffffffffffffffffffffffffff166108fc60056001600085815260200190815260200160002060040154816105d357fe5b049081150290604051600060405180830381858888f193505050501580156105ff573d6000803e3d6000fd5b507f45b2ca8b51b1a5883387fc2e9678c5313c7313e3b835505623b1808e3b99e20633604051808273ffffffffffffffffffffffffffffffffffffffff1673ffffffffffffffffffffffffffffffffffffffff16815260200191505060405180910390a150565b6002818154811061067357fe5b906000526020600020016000915090505481565b6000806000806001600086815260200190815260200160002060010160009054906101000a900473ffffffffffffffffffffffffffffffffffffffff166001600087815260200190815260200160002060020160009054906101000a900473ffffffffffffffffffffffffffffffffffffffff166001600088815260200190815260200160002060030160009054906101000a900473ffffffffffffffffffffffffffffffffffffffff16600160008981526020019081526020016000206004015482925093509350935093509193509193565b606060028054806020026020016040519081016040528092919081815260200182805480156107a957602002820191906000526020600020905b815481526020019060010190808311610795575b5050505050905090565b6107bc82610a18565b1561082f576040517f08c379a00000000000000000000000000000000000000000000000000000000081526004018080602001828103825260138152602001807f746869732049642065786973747320796574210000000000000000000000000081525060200191505060405180910390fd5b816001600084815260200190815260200160002060000181905550336001600084815260200190815260200160002060010160006101000a81548173ffffffffffffffffffffffffffffffffffffffff021916908373ffffffffffffffffffffffffffffffffffffffff16021790555080600160008481526020019081526020016000206004018190555060016002839080600181540180825580915050906001820390600052602060002001600090919290919091505550507ff166c40d7210aafdb698f17269d3b71bc7fd9bc0f7c3765dc14e40115dfc9a4733604051808273ffffffffffffffffffffffffffffffffffffffff1673ffffffffffffffffffffffffffffffffffffffff16815260200191505060405180910390a15050565b6000600280549050905090565b336001600083815260200190815260200160002060020160006101000a81548173ffffffffffffffffffffffffffffffffffffffff021916908373ffffffffffffffffffffffffffffffffffffffff1602179055507f0e8b597347f81b35f06edc2ab95511d0c28f5d9cf8434b82903e20eafef4b2bc33604051808273ffffffffffffffffffffffffffffffffffffffff1673ffffffffffffffffffffffffffffffffffffffff16815260200191505060405180910390a150565b60008060016000848152602001908152602001600020600001541415610a415760009050610a46565b600190505b91905056fea265627a7a72315820ba89270e9597a5f1d8552b6703840b7b93cfbb7b8c527d7005492799d7ea000764736f6c63430005100032",
  "source": "pragma solidity ^0.5.0;\r\n\r\ncontract ProductsContract {\r\n    address owner;\r\n\r\n    struct Product {\r\n        uint256 id;\r\n        address factory;\r\n        address payable deliver;\r\n        address client;\r\n        uint256 price;\r\n    }\r\n\r\n    mapping(uint256 => Product) products;\r\n    uint256[] public ProductsList;\r\n\r\n    constructor() public {\r\n        owner = msg.sender;\r\n    }\r\n\r\n    event FactoryLog(address _from);\r\n    event DeliverLog(address _from);\r\n    event ClientLog(address _from);\r\n    event WithdrawLog(uint256 _balance);\r\n\r\n    function setFactory(uint256 _id, uint256 _price) public {\r\n        require(!idExist(_id), \"this Id exists yet!\");\r\n        products[_id].id = _id;\r\n        products[_id].factory = msg.sender;\r\n        products[_id].price = _price;\r\n        ProductsList.push(_id) - 1;\r\n        emit FactoryLog(msg.sender);\r\n    }\r\n\r\n    function setDeliver(uint256 _id) public {\r\n        products[_id].deliver = msg.sender;\r\n        emit DeliverLog(msg.sender);\r\n    }\r\n\r\n    function setClient(uint256 _id) public payable {\r\n        require(\r\n            msg.value == products[_id].price,\r\n            \"Algo Paso en el requerimiento\"\r\n        );\r\n        products[_id].client = msg.sender;\r\n        products[_id].deliver.transfer(products[_id].price / 5);\r\n        emit ClientLog(msg.sender);\r\n    }\r\n\r\n    function getProducts() public view returns (uint256[] memory) {\r\n        return ProductsList;\r\n    }\r\n\r\n    function getProduct(uint256 _id)\r\n        public\r\n        view\r\n        returns (\r\n            address,\r\n            address,\r\n            address,\r\n            uint256\r\n        )\r\n    {\r\n        return (\r\n            products[_id].factory,\r\n            products[_id].deliver,\r\n            products[_id].client,\r\n            products[_id].price\r\n        );\r\n    }\r\n\r\n    function countProducts() public view returns (uint256) {\r\n        return ProductsList.length;\r\n    }\r\n\r\n    function idExist(uint256 _id) private returns (bool) {\r\n        if (products[_id].id == 0) {\r\n            return false;\r\n        }\r\n        return true;\r\n    }\r\n\r\n    //\r\n    function withdraw() public {\r\n        require(msg.sender == owner);\r\n        msg.sender.transfer(address(this).balance);\r\n        emit WithdrawLog(address(this).balance);\r\n    }\r\n\r\n    function getBalance() public view returns (uint256) {\r\n        require(msg.sender == owner);\r\n        return address(this).balance;\r\n    }\r\n}\r\n",
  "sourcePath": "/Users/miguelangelparra/maestria-utn/Blockchain y smart contracts/proyectos/logistics-tracker/contracts/ProductsContract.sol",
  "compiler": {
    "name": "solc",
    "version": "0.5.16+commit.9c3226ce.Emscripten.clang"
  },
  "schemaVersion": "3.4.3",
  "updatedAt": "2021-11-12T21:23:04.624Z",
  "networkType": "ethereum",
  "devdoc": {
    "methods": {}
  },
  "userdoc": {
    "methods": {}
  }
}